:020000040000FA
:100000000C945D000C9485000C9485000C94850084
:100010000C9485000C9485000C9485000C9485004C
:100020000C9485000C9485000C9485000C9485003C
:100030000C9485000C9485000C9485000C9485002C
:100040000C94F5020C9485000C9465030C943F030A
:100050000C9485000C9485000C9485000C9485000C
:100060000C9485000C94850000000008000201003B
:100070000003040700000000000000000000000072
:10008000250028002B0000000000240027002A0083
:10009000040404040404040402020202020203032E
:1000A0000303030301020408102040800102040836
:1000B0001020010204081020240611241FBECFEFD7
:1000C000D8E0DEBFCDBF11E0A0E0B1E0EEE8F0E1A6
:1000D00002C005900D92A432B107D9F721E0A4E245
:1000E000B1E001C01D92AB3DB207E1F710E0CDE5F4
:1000F000D0E004C02197FE010E943F08CC35D10713
:10010000C9F70E9497030C9445080C94000090E0F6
:10011000FC01EC55FF4F249180579F4FFC018491C7
:10012000882399F090E0880F991FFC01EA57FF4F50
:10013000A591B491FC01E458FF4F859194918FB73C
:10014000F894EC91E22BEC938FBF089590E0FC01C2
:10015000E859FF4F2491FC01EC55FF4F3491FC010D
:10016000E057FF4FE491EE23C9F0222339F023300A
:1001700001F1A8F4213019F1223029F1F0E0EE0F5D
:10018000FF1FE458FF4FA591B4918FB7F894EC91FD
:10019000611126C030953E233C938FBF08952730D0
:1001A000A9F02830C9F0243049F7809180008F7D74
:1001B00003C0809180008F7780938000DFCF84B56B
:1001C0008F7784BDDBCF84B58F7DFBCF8091B0006E
:1001D0008F778093B000D2CF8091B0008F7DF9CF20
:1001E0003E2BDACF1F93CF93DF93182FEB010E94A2
:1001F0008700209739F460E0812FDF91CF911F9124
:100200000C94A600CF3FD10511F461E0F5CFE12FAA
:10021000F0E0E859FF4FE491E33031F140F4E13090
:10022000B1F0E230E1F0C038D1057CF7E4CFE7303F
:1002300029F1E83059F1E430B1F780918000806213
:1002400080938000D0938B00C0938A0004C084B553
:10025000806884BDC7BDDF91CF911F91089584B59B
:10026000806284BDC8BDF7CF809180008068809394
:100270008000D0938900C0938800EDCF8091B000BA
:1002800080688093B000C093B300E5CF8091B00048
:1002900080628093B000C093B400DDCF8E50806444
:1002A00080937C0080917A00806480937A008091B2
:1002B0007A0086FDFCCF80917800909179000895B6
:1002C000AF92BF92CF92DF92EF92FF920F931F9364
:1002D000CF93DF936C017B018B01040F151FEB01A2
:1002E0005E01AE18BF08C017D10759F06991D60159
:1002F000ED91FC910190F081E02DC6010995892BCB
:1003000079F7C501DF91CF911F910F91FF90EF9089
:10031000DF90CF90BF90AF900895FC01538D448D36
:10032000252F30E0842F90E0821B930B541710F0A0
:10033000CF96089501970895FC01918D828D9817AD
:1003400061F0A28DAE0FBF2FB11D5D968C91928D85
:100350009F5F9F73928F90E008958FEF9FEF0895B6
:10036000FC01918D828D981731F0828DE80FF11D7F
:10037000858D90E008958FEF9FEF0895FC01918D9A
:10038000228D892F90E0805C9F4F821B91098F7393
:10039000992708958EE391E00E94BE0121E0892B08
:1003A00009F420E0822F089580E090E0892B29F065
:1003B0000E94CA0181110C9400000895FC01A48DD3
:1003C000A80FB92FB11DA35ABF4F2C91848D90E077
:1003D00001968F739927848FA689B7892C93A0895A
:1003E000B1898C91837080648C93938D848D9813E4
:1003F00006C00288F389E02D80818F7D8083089577
:10040000EF92FF920F931F93CF93DF93EC0181E064
:10041000888F9B8D8C8D98131AC0E889F98980810B
:1004200085FF15C09FB7F894EE89FF896083E8893E
:10043000F98980818370806480839FBF81E090E030
:10044000DF91CF911F910F91FF90EF900895F62EBD
:100450000B8D10E00F5F1F4F0F731127E02E8C8D57
:100460008E110CC00FB607FCFACFE889F98980819C
:1004700085FFF5CFCE010E94DE01F1CFEB8DEC0FB1
:10048000FD2FF11DE35AFF4FF0829FB7F8940B8FB9
:10049000EA89FB8980818062CFCFCF93DF93EC0123
:1004A000888D8823B9F0AA89BB89E889F9898C915C
:1004B00085FD03C0808186FD0DC00FB607FCF7CF18
:1004C0008C9185FFF2CF808185FFEDCFCE010E9418
:1004D000DE01E9CFDF91CF910895FC01019000206A
:1004E000E9F73197AF01481B590BBC018EE391E04E
:1004F0000C9460018F929F92AF92BF92CF92DF9245
:10050000EF92FF920F931F93CF93DF93CDB7DEB798
:10051000A1970FB6F894DEBF0FBECDBF6B017C0173
:10052000F7FE41C06DE28EE391E00E9400028C0173
:1005300022273327A9012C193D094E095F0919A269
:10054000CE0181967C019AE0892E912CA12CB12CB0
:10055000CA01B901A50194010E941D08605DF7015F
:1005600062937F01211531054105510589F790E01E
:1005700080E0309719F0CF010E946D02800F911F2B
:10058000A1960FB6F894DEBF0FBECDBFDF91CF911D
:100590001F910F91FF90EF90DF90CF90BF90AF90A1
:1005A0009F908F900895AC019B0119A28E010F5D61
:1005B0001F4F8AE0C82ED12CE12CF12CCA01B901C1
:1005C000A70196010E941D08605DF80162938F01EA
:1005D000211531054105510589F790E080E03097FC
:1005E00079F2CF010E946D02CBCF1F920F920FB60E
:1005F0000F9211242F933F938F939F93AF93BF93A9
:1006000080913A0190913B01A0913C01B0913D0154
:100610003091390123E0230F2D3758F50196A11DA4
:10062000B11D2093390180933A0190933B01A0932F
:100630003C01B0933D018091350190913601A0912C
:100640003701B09138010196A11DB11D809335018C
:1006500090933601A0933701B0933801BF91AF91C9
:100660009F918F913F912F910F900FBE0F901F90F0
:10067000189526E8230F0296A11DB11DD2CF1F9217
:100680000F920FB60F9211242F933F934F935F93C6
:100690006F937F938F939F93AF93BF93EF93FF934A
:1006A0008EE391E00E94DE01FF91EF91BF91AF9147
:1006B0009F918F917F916F915F914F913F912F917A
:1006C0000F900FBE0F901F9018951F920F920FB6AC
:1006D0000F9211242F938F939F93EF93FF93E091A9
:1006E0004E01F0914F018081E0915401F09155014C
:1006F00082FD1BC09081809157018F5F8F73209185
:100700005801821741F0E0915701F0E0E25CFE4FA2
:10071000958F80935701FF91EF919F918F912F912A
:100720000F900FBE0F901F9018958081F4CF789492
:1007300084B5826084BD84B5816084BD85B58260E6
:1007400085BD85B5816085BD80916E008160809397
:100750006E00109281008091810082608093810000
:100760008091810081608093810080918000816010
:10077000809380008091B10084608093B10080916B
:10078000B00081608093B00080917A008460809393
:100790007A0080917A00826080937A0080917A005A
:1007A000816080937A0080917A00806880937A00DB
:1007B0001092C100E0914E01F0914F0182E08083E0
:1007C000E0914A01F0914B011082E0914C01F091CF
:1007D0004D018FEC808310925601E0915201F0910F
:1007E000530186E08083E0915001F09151018081B6
:1007F00080618083E0915001F09151018081886097
:100800008083E0915001F091510180818068808364
:10081000E0915001F091510180818F7D80838AE0C9
:100820000E94870082E00E94870083E00E94870088
:100830008BE00E94870084E00E94870085E00E9490
:100840008700C0E0D0E080E10E944E016C018FE0A3
:100850000E944E014C018EE00E944E012C0186E167
:1008600091E00E946D020D2C000CEE08FF08C701FC
:10087000B6010E947A0289E191E00E946D028BE14B
:1008800091E00E946D02092C000CAA08BB08C5016A
:10089000B4010E947A0289E191E00E946D028EE12A
:1008A00091E00E946D02052C000C66087708C301D8
:1008B000B2010E947A0281E291E00E946D02C301BE
:1008C000B2010E94FB062B013C01C501B4010E944C
:1008D000FB064B015C01C701B6010E94FB066B01E0
:1008E0007C0120E030E04AEF53E4C501B4010E94EE
:1008F000AB0711E01816C4F020E030E04AEF53E4F3
:10090000C701B6010E94BE06182F111F1127111F23
:1009100020E030E04AEF53E4C301B2010E94BE067A
:10092000881F8827881F18271093280120E030E0AF
:100930004AEF53E4C701B6010E94BE0687FFE8C034
:1009400020E030E04AEF53E4C501B4010E94BE0646
:1009500087FFDEC020E030E04AEF53E4C301B2017C
:100960000E94BE0687FFD4C0609100017091010112
:1009700080910201909103010E94FB0620E030E08B
:1009800040E250E40E94B0076B017C01C09231014B
:10099000D0923201E0923301F0923401112309F434
:1009A0000BC110922D0110922E0110922F01109266
:1009B0003001C0922401D0922501E0922601F092EC
:1009C00027011092280120912401309125014091A6
:1009D000260150912701C701B6010E9451064B0123
:1009E0005C018092290190922A01A0922B01B09281
:1009F0002C01C0922401D0922501E0922601F092B0
:100A000027012AE037ED43E25CE360912D0170910C
:100A10002E0180912F01909130010E94B0072B018F
:100A20003C0120E030E048E452E4C701B6010E94F6
:100A3000B0079B01AC01C301B2010E9452066B01D9
:100A40007C0120E030E040EA51ECC501B4010E9495
:100A5000B0079B01AC01C701B6010E9452064B01D1
:100A60005C0120E030E044E353E40E9452060E941F
:100A7000C3066B017C01A501940160E070E084E392
:100A800093E40E9451060E94C3064B015C0160E0A2
:100A900082E00E94A60061E083E00E94A60060E080
:100AA00084E00E94A60061E085E00E94A60070E05C
:100AB00060E0B7FC0CC09FEF89169104A104B1045B
:100AC00029F024F0812C912C54018A94B4018AE0FD
:100AD0000E94F20070E060E0F7FC0CC0AFEFCA16B5
:100AE000D104E104F10429F024F0C12CD12C7601C9
:100AF000CA94B6018BE00E94F200209709F4A3CEBD
:100B00000E94CA01882309F49ECE0E9400009BCE59
:100B1000A701960160E070E080E894E40E9451062D
:100B20006B017C01A301920160E070E080E894E435
:100B30000E9451069B01AC01C701B6010E945106FB
:100B40006B017C01F7FAF094F7F8F09420E030E0C4
:100B500040E85AE3C501B4010E94B0079B01AC0113
:100B600060E070E080E090E40E9451069B01AC01DF
:100B7000C701B6010E94B00720E030E040E85AE328
:100B80000E94B0076B017C0120E030E0A9010E94C7
:100B9000BE0687FF0CC08FEF9FEFDC018093000142
:100BA00090930101A0930201B0930301EFCE81E085
:100BB00090E0A0E0B0E0F2CF20912D0130912E0125
:100BC00040912F0150913001C701B6010E94520699
:100BD0004B015C0120E030E04AE754E40E94AB079F
:100BE00018162CF180922D0190922E01A0922F01C7
:100BF000B092300120E030E04AE754EC60912D01E2
:100C000070912E0180912F01909130010E94BE06BB
:100C100087FFD9CE80E090E0AAE7B4EC80932D0165
:100C200090932E01A0932F01B0933001CCCE80E0A1
:100C300090E0AAE7B4E480932D0190932E01A09355
:100C40002F01B0933001D6CFEEE3F1E01382128290
:100C500088EE93E0A0E0B0E084839583A683B78319
:100C600088E091E09183808385EC90E0958784878C
:100C700084EC90E09787868780EC90E0918B808B66
:100C800081EC90E0938B828B82EC90E0958B848B4F
:100C900086EC90E0978B868B118E128E138E148EBD
:100CA00008955058BB27AA270E9469060C94710723
:100CB0000E94630738F00E946A0720F039F49F3FD2
:100CC00019F426F40C9460070EF4E095E7FB0C94FD
:100CD0005A07E92F0E94820758F3BA176207730771
:100CE0008407950720F079F4A6F50C94A4070EF478
:100CF000E0950B2EBA2FA02D0B01B90190010C012C
:100D0000CA01A0011124FF27591B99F0593F50F443
:100D1000503E68F11A16F040A22F232F342F44279B
:100D2000585FF3CF469537952795A795F040539593
:100D3000C9F77EF41F16BA0B620B730B840BBAF063
:100D40009150A1F0FF0FBB1F661F771F881FC2F7CE
:100D50000EC0BA0F621F731F841F48F487957795E2
:100D60006795B795F7959E3F08F0B0CF9395880F9C
:100D700008F09927EE0F9795879508950E943607FA
:100D800008F481E008950E94CA066894B1110C9499
:100D9000A50708950E948A0788F09F5798F0B92FF9
:100DA0009927B751B0F0E1F0660F771F881F991FA0
:100DB0001AF0BA95C9F714C0B13091F00E94A40797
:100DC000B1E008950C94A407672F782F8827B85FA7
:100DD00039F0B93FCCF3869577956795B395D9F7F8
:100DE0003EF490958095709561957F4F8F4F9F4F02
:100DF0000895E89409C097FB3EF49095809570950E
:100E000061957F4F8F4F9F4F9923A9F0F92F96E956
:100E1000BB279395F695879577956795B795F111CB
:100E2000F8CFFAF4BB0F11F460FF1BC06F5F7F4F68
:100E30008F4F9F4F16C0882311F096E911C077237A
:100E400021F09EE8872F762F05C0662371F096E883
:100E5000862F70E060E02AF09A95660F771F881F52
:100E6000DAF7880F9695879597F90895990F0008F6
:100E7000550FAA0BE0E8FEEF16161706E807F9076C
:100E8000C0F012161306E407F50798F0621B730B07
:100E9000840B950B39F40A2661F0232B242B252B88
:100EA00021F408950A2609F4A140A6958FEF811D2B
:100EB000811D089597F99F6780E870E060E00895CC
:100EC0009FEF80EC089500240A9416161706180662
:100ED0000906089500240A9412161306140605063E
:100EE0000895092E0394000C11F4882352F0BB0FCF
:100EF00040F4BF2B11F460FF04C06F5F7F4F8F4F32
:100F00009F4F089557FD9058440F551F59F05F3F6C
:100F100071F04795880F97FB991F61F09F3F79F01B
:100F200087950895121613061406551FF2CF46959D
:100F3000F1DF08C0161617061806991FF1CF86951F
:100F40007105610508940895E894BB276627772703
:100F5000CB0197F908950E94360708F48FEF0895A2
:100F60000E94C3070C9471070E94630738F00E9427
:100F70006A0720F0952311F00C945A070C9460072F
:100F800011240C94A5070E94820770F3959FC1F36A
:100F9000950F50E0551F629FF001729FBB27F00D27
:100FA000B11D639FAA27F00DB11DAA1F649F66277C
:100FB000B00DA11D661F829F2227B00DA11D621FCB
:100FC000739FB00DA11D621F839FA00D611D221F85
:100FD000749F3327A00D611D231F849F600D211D69
:100FE000822F762F6A2F11249F5750409AF0F1F0EC
:100FF00088234AF0EE0FFF1FBB1F661F771F881F55
:1010000091505040A9F79E3F510580F00C945A072B
:101010000C94A5075F3FE4F3983ED4F3869577954B
:101020006795B795F795E7959F5FC1F7FE2B880FFA
:10103000911D9695879597F90895A1E21A2EAA1BFE
:10104000BB1BFD010DC0AA1FBB1FEE1FFF1FA21778
:10105000B307E407F50720F0A21BB30BE40BF50B75
:10106000661F771F881F991F1A9469F760957095FE
:10107000809590959B01AC01BD01CF010895EE0FC5
:10108000FF1F0590F491E02D0994F894FFCFFFFF26
:10109000FFFF00000000000260018D014D02BE0153
:1010A0009C01B0014C3A002000433A00523A000D36
:0210B0000A0034
:107E0000112484B714BE81FFF0D085E080938100F7
:107E100082E08093C00088E18093C10086E0809377
:107E2000C20080E18093C4008EE0C9D0259A86E02C
:107E300020E33CEF91E0309385002093840096BBD3
:107E4000B09BFECF1D9AA8958150A9F7CC24DD24C4
:107E500088248394B5E0AB2EA1E19A2EF3E0BF2EE7
:107E6000A2D0813461F49FD0082FAFD0023811F036
:107E7000013811F484E001C083E08DD089C08234E0
:107E800011F484E103C0853419F485E0A6D080C0E4
:107E9000853579F488D0E82EFF2485D0082F10E0AE
:107EA000102F00270E291F29000F111F8ED06801E7
:107EB0006FC0863521F484E090D080E0DECF843638
:107EC00009F040C070D06FD0082F6DD080E0C81688
:107ED00080E7D80618F4F601B7BEE895C0E0D1E017
:107EE00062D089930C17E1F7F0E0CF16F0E7DF06D8
:107EF00018F0F601B7BEE89568D007B600FCFDCFD4
:107F0000A601A0E0B1E02C9130E011968C91119780
:107F100090E0982F8827822B932B1296FA010C0160
:107F200087BEE89511244E5F5F4FF1E0A038BF0790
:107F300051F7F601A7BEE89507B600FCFDCF97BE46
:107F4000E89526C08437B1F42ED02DD0F82E2BD052
:107F50003CD0F601EF2C8F010F5F1F4F84911BD097
:107F6000EA94F801C1F70894C11CD11CFA94CF0C13
:107F7000D11C0EC0853739F428D08EE10CD085E9AC
:107F80000AD08FE07ACF813511F488E018D01DD067
:107F900080E101D065CF982F8091C00085FFFCCF94
:107FA0009093C60008958091C00087FFFCCF809118
:107FB000C00084FD01C0A8958091C6000895E0E648
:107FC000F0E098E1908380830895EDDF803219F02E
:107FD00088E0F5DFFFCF84E1DECF1F93182FE3DFCA
:107FE0001150E9F7F2DF1F91089580E0E8DFEE27F6
:047FF000FF270994CA
:027FFE00040479
:00000001FF
